:020000040000FA
:10000000C0480020D5000000EF0000002547000098
:1000100000000000000000000000000000000000E0
:10002000000000000000000000000000F3000000DD
:100030000000000000000000F500000099E400004E
:100040001161000019610000216100002D610000B4
:10005000E93C0000EDEB000095EC0000A1EC000095
:10006000F14D0000F94D000059B6000061B60000E6
:100070003B47000043470000D5EB0000DDEB0000EC
:10008000E5EB0000E54D0000F5EB0000FDEB0000A6
:1000900005EC000001610000CDEF00009DAD000007
:1000A0002B1E0000096100007BEF000083EF0000C1
:1000B000D74F0000DD4D00003D43000099340000A3
:1000C0000348854601F0A6FA00480047071B0000D8
:1000D000C048002009480A4A002100A1814200D9F5
:1000E0000244084802600848804708480047FEE785
:1000F000FEE7FEE7FEE7FEE7FEE700000000002067
:100100000000000008ED00E081EB0000C1000000ED
:10011000F8B500242546002904DA0E460124002102
:100120004042B141002B04DA1E4600235242012511
:10013000B34100F04DFC8C4617461E46AC4203D03E
:10014000002540428D41AC46002C02D0002657428B
:100150009E4161463A46334601B0F0BD30B5434357
:1001600051435C18010C130C0D465D432C1980B2F1
:1001700092B20546554351430A0C09044D19624198
:100180005843010C00044019514130BD38B50446B4
:10019000C0681821401E4843A16840183C214843CC
:1001A000616840183C2148432168451860690C216A
:1001B0004843216940186921C900401A302100F0E4
:1001C000DFFB114A50434219084600921A2902DB0C
:1001D0000E49511800910C2100F0D2FB0C4A5043FB
:1001E000009A801800900B4806E0491E425C074BBD
:1001F0005A43009BD21800920029F6DC214668463B
:1002000000F03EFC009838BD801F86078051010039
:100210008033E101E4E3010010B5431A934209D2AF
:100220008318881803E0401E01785B1E1970521E67
:10023000F9D210BD03460B439B0703D009E008C960
:10024000121F08C0042AFAD203E00B780370401C86
:10025000491C521EF9D210BDD2B201E00270401CFE
:10026000491EFBD270470022F6E710B513460A4636
:1002700004461946FFF7F0FF204610BD30B505468D
:100280002A460B4610781C78521C5B1C002801D0B3
:10029000A042F7D0002C03D0002802D06D1CEFE75D
:1002A000284630BD10B5044605E00B780370401CAD
:1002B000002B00D0491C521EF7D2204610BDCAB2F6
:1002C000401E4178401C8A4202D00029F9D100200A
:1002D0007047421C0178401C0029FBD1801A7047EE
:1002E00010B5002200E0521C835C8C5CA34201D15B
:1002F000002BF8D1D8B2E1B2401A10BD30B5044697
:100300000020034600E05B1C934203D2E05CCD5C1E
:10031000401BF8D030BD03460A780270401C491CCF
:10032000002AF9D1184670470FB400B58DB0099076
:100330000B9010A900200091C0430A9000200C905F
:1003400006480690064807906A4609A80F9900F0EB
:100350004FFF0DB008BC04B0184700001112000098
:1003600031120000F7B5009C0F4600262578641C6A
:10037000002D05D000F06EFB0068405DC007F5D190
:100380002B2D02D02D2D18D0641E39462046029AFE
:1003900000F060FF002F04D03968A14201D100991C
:1003A00039607105022400290BDA4042002803DD80
:1003B0001DF08CFB0460A007FEBD012080020643F7
:1003C000E3E70028F8DA1DF081FB04600048FEBD79
:1003D000FFFFFF7F70B506461DF078FB04680546F9
:1003E0000A2200213046FFF7BDFF2C6070BD70B5BA
:1003F00006461DF06BFB046805460A2200213046C4
:10040000FFF7B0FF2C6070BDF8B502464A40D40F2C
:1004100042004B0052085B089A4202D2024608464C
:1004200011464A0023D0C30D4A00DDB2120EAD1AA8
:10043000202D35DA49020126490AF6058A19002CD1
:1004400000D0524220214F1B1146B9402A411018BA
:10045000C20D9A4221D0002C17D0012D08DCDA05FC
:10046000801AD20F8019D207DBB200F054FFF8BD1A
:10047000DA05801A012340001B06C01880185A4272
:100480008018CA0F1043490007E04908C20711430A
:10049000DA05801A80194008801800F034FFF8BD92
:1004A00061000122511A001BF7E70122D2075140D7
:1004B000AAE70122D2075040A6E7024670B54A409B
:1004C000D30FDB0740002DD04A002AD0010E140EB6
:1004D000000212020919400A520A8418E501044672
:1004E0005443000A120A2E045043A4194219200C46
:1004F000C543AA18120C0125AD03521C521912044F
:100500007F39240400D0521C104301D44000491EFE
:10051000C2B20C06C0092018401C4008802A02D034
:1005200003E0002070BD40084000002900DA0020F0
:10053000184370BD70B502464A40D50F40004A00CE
:10054000ED0740085208002814D0002A12D0C40D2C
:10055000D30D41020120C0055202490A520AE41A91
:10056000091812187D34914201D3641C00E049003F
:10057000002C01DA002070BD0023914201D3891ABA
:100580000343400849000028F7D100290AD09142CE
:1005900002D10121C90705E0914201D2012101E008
:1005A0000121C943E005C018401900F0ACFE70BD40
:1005B000F0B51FB488B00B990998002448400999F8
:1005C000C00F490049080991C0070B9900904900E4
:1005D00049080B9109990898A64608431CD00B9925
:1005E0000A98084318D0099801244000420D480099
:1005F000410D099824050003000B204309900B9836
:100600000003000B20430B9050181C494018002297
:1006100001901446104605E0002001460DB0F0BDE3
:10062000032801DA034600E003239C46C11A0AAE00
:100630000AE05F0008ADED5B4F00F75B7D430027EC
:10064000AA187C41491C5B1E6145F2DD410004ABE8
:100650005A522104120C0A43240C401C0828DFDBE8
:10066000019802900099704601910090059B049AB0
:100670000799069800F095FED0E700000DFCFFFFFB
:10068000F0B50C465C4085B0E40FE40703944C00E1
:1006900000266408590094464908024602962243FF
:1006A00021D062460A431ED06200570D4A000E0355
:1006B0002303550D012402462C492405781B1B0BEE
:1006C000360B401823432643614600901C46501ABF
:1006D000B44103D30098401C009002E092180098A7
:1006E0005B41002803DA0020014605B0F0BD002080
:1006F000012109050746864611E064461D46141B84
:10070000B54106D36546521BB341744607430C43BB
:10071000A646CD0740084908284392185B41054684
:100720000D43EAD11046184313D060461946504095
:100730007140084306D06046101AB34106D2012228
:10074000002306E000220123DB0702E00122D2435E
:100750005310009874460105381C6141029C039DAA
:100760000019694100F010FEBFE70000FD03000022
:100770000122D207002800DB101A002900DB511AE1
:10078000814201D801207047002070470122D20722
:10079000002800DB101A002900DB511A814201D227
:1007A00001207047002070470122D207002800DB9B
:1007B000101A002900DB511A814201D30120704731
:1007C0000020704710B5002904DB0C460121C90741
:1007D0004042A141002B04DB1C460123DB075242AF
:1007E000A341101A8B4101D3012010BD002010BD80
:1007F000C217C10F504010B54018CA0796230021F8
:1008000000F089FD10BD10B500229623114600F0BE
:1008100082FD10BD0EB5C217C10F5040CA07401867
:100820000021054B0293019200910A460B4600F00D
:10083000B8FD03B000BD000033040000C20F41004A
:1008400040020123400ADB05D207090EC0187F29A8
:1008500001DA00207047962903DC9623591AC84014
:1008600001E096398840002AF4D0404270474100A8
:1008700040020122400AD205090E80187F2901DAC0
:1008800000207047962903DC9622511AC840704711
:10089000963988407047000070B5CD0F4A000903B3
:1008A0000123090B1B0519430B4BED070024520DC7
:1008B0009A4201DA002070BD074B34339A4203DCC0
:1008C0009A1A00F0B5F802E00449511888402C4308
:1008D000F1D0404270BD0000FF030000CDFBFFFFE0
:1008E000C20FD207400040080BD0C10D0723DB0127
:1008F000C91840020905400A1143C20840071143C4
:100900007047002001467047CB0FDB07490010B548
:10091000490802460A4307D00A0D07240903E401E7
:10092000090B121B002A01DC002010BDC900440F76
:100930000C43C100E018D205801800F0E4FC10BDA3
:1009400070B50446002903D000202022012310E0C6
:10095000002801D00020C043C046C0460DE0254617
:10096000D5408D4205D30D469540641B1D469540EC
:1009700040191546521E002DF1DC214670BD0000C5
:1009800070B5002504462E46002911D0002C01DA4E
:1009900001254442002901DA012649422046FFF799
:1009A000CFFFB54200D04042002D00D0494270BD7B
:1009B000002C02DA0121C90702E0002C00DD034906
:1009C0000846C046C046214670BD0000FFFFFF7FBD
:1009D000F0B51FB40646002082B0054640240191C0
:1009E00000901BE0019922460F46304600F020F8A7
:1009F000049A059B801A994110D310461946224645
:100A000000F020FE361A8F41019722460120002176
:100A1000009F00F017FE38184D4100902046641EDC
:100A20000028DFDC019B00982946324607B0F0BD64
:100A300010B5202A04DB0846203AD040002110BD22
:100A40000B46D340D0402024A21A914008431946B7
:100A500010BD00000048704774E4010010B5044662
:100A6000FFF7F8FF0068005DC007C00F10BD000071
:100A700010B5024900F004F810BD0000301D002040
:100A800070B50C4600683C21FFF75AFF21603C21FD
:100A9000FFF756FF61601821FFF752FF0546A1607E
:100AA0000721001DFFF74CFFA1610F48A90008189E
:100AB0000E49FFF745FF0246443288086261E06153
:100AC0003B2802D3910700D0401C0021084B0A4666
:100AD0002161995C814203D8401A521C2261F8E7D7
:100AE000401CE060204670BD6C0B0000B5050000A6
:100AF00078E40100FFB50025ED4385B000200090AB
:100B000001909F685E681C46A1696D1C0698884725
:100B10000290216A88470028F6D10298401C0CD028
:100B2000032040028643002F19DD700614D5029879
:100B30002B2809D02D280FD103E00020C04309B095
:100B4000F0BD012080020643A1696D1C069888470C
:100B50007F1E0290002F02DD0298302803D00798F4
:100B6000002828D024E0012040020643A1696D1C22
:100B70007F1E069888470290002F03DD782805D055
:100B8000582803D00798002810D011E007980028B3
:100B900001D010280CD1012040028643A1696D1CB0
:100BA0007F1E069888470290102000E008200790DA
:100BB000C017039016E00A20F9E70120400206431F
:100BC0007F1E039B079A01990098FFF7C7FA029AC4
:100BD000D3178018594101910090A1696D1C0698A6
:100BE00088470290002F06DD0799029800F04DFD1E
:100BF00002900028E1DAE16906988847B00502D43E
:100C00000120C0439BE7F00710D1700610D5700596
:100C100005D50098019B002241429A4101E0019ACA
:100C200000992068031D2360006806C0284686E7F7
:100C30002068011D21600068019A0099F5E7FFB561
:100C40000027FF4383B000205C6801909E681D462A
:100C5000A9697F1C049888470090296A8847002862
:100C6000F6D10098401C0CD0032040028443002E93
:100C700019DD600614D500982B2809D02D280FD136
:100C800003E00020C04307B0F0BD01208002044310
:100C9000A9697F1C04988847761E0090002E02DD0B
:100CA0000098302803D00598002825D035E0012091
:100CB00040020443A969761E7F1C0498884700906F
:100CC000002E03DD782805D0582803D00598002889
:100CD00010D022E00598002801D010281DD1012055
:100CE00040028443A969761E7F1C049888470090BF
:100CF000102002E0082000E00A2005900DE001210C
:100D000049020C43059A0199761E51430818019037
:100D1000A9697F1C049888470090002E05DD05997D
:100D2000009800F0B2FC0028E9DAE96904988847E5
:100D3000A00502D40120C043A5E7E00722D1600648
:100D400011D56005019800D5404229680A1D2A6026
:100D50000968220501D5087014E0220701D5088032
:100D600010E008600EE02868011D29600068210578
:100D700002D50199017005E02107019901D5018093
:100D800000E0016038467EE7FFB5002083B00090A8
:100D90005068019091691446002697680498884726
:100DA00005460C990698084305D009E0A169761C10
:100DB000049888470546216A284688470028F5D1C7
:100DC000681C03D00198C00704D017E00020C0437E
:100DD00007B0F0BD2068011D2160006800900DE0A3
:100DE0000198C00704D1009805700098401C00903D
:100DF000A169761C7F1E049888470546002F1CDDDC
:100E0000681C1AD0069800280FD0E817C00E4019A9
:100E100041118A0006994009511840012A1A0968AF
:100E2000012090400142DBD107E00C980028D7D187
:100E3000216A284688470028D2D0E169049888476B
:100E40000C98002807D1002E05DD0198C00702D1BB
:100E5000009800210170A068B84204DD0C980028B9
:100E600004D0002F02D00120C043B1E73046AFE7E5
:100E7000FFB5087889B01546FF2805D0491C2D28F4
:100E800004D00022002407E000240BE00122F9E74F
:100E90000A235C430419491C0878FF28F8D1002A6A
:100EA00000D06442002004902A7801462D2A01D007
:100EB0002B2A0FD16D1C2D2A02D00022049209E0AA
:100EC0000122FBE700260A2233466D1CFFF746F994
:100ED000381871412F78FF2FF4D10C9AA21806927E
:100EE00002460A4304D0FF23069A9133DA4205DA18
:100EF000002109980A4606C00DB0F0BD0024B74A8B
:100F0000B54D2646079200F0C5FD02900698039164
:100F1000002801DA474200E0074639050020AF4AC1
:100F2000001C51410191009012E0F80707D02246C1
:100F30002B4630460799FFF73BFB064607912246B2
:100F40002B4610461946FFF733FB04460D467F102B
:100F5000002FEAD10698019B0028009A0399029875
:100F600006DAFFF78DFB3246079BFFF789FB05E0AA
:100F7000FFF71EFB3246079BFFF71AFB049A002A75
:100F800002D00122D2075140099A03C2B4E7FFB54B
:100F900091B0002009900025ED432E209E685C68EA
:100FA0001F460190B9696D1C129888470090396AF4
:100FB00088470028F6D10098401C0AD00D20C001B7
:100FC0008443002E12DD00982B2809D02D280DD146
:100FD00003E00020C04315B0F0BD012080020443AF
:100FE000B9696D1C12988847761E009003A96005A8
:100FF00001D52D2000E02B206A461073491C0CA857
:101000000F9102900AE0B9696D1C12988847009010
:101010000120400204431398761E0560002E02DD75
:1010200000983028EFD001990098884245D180205F
:10103000044308E00998401E09900120400204433F
:101040001399681C0860B9696D1C761E1298884750
:1010500000903028EED030E00199884205D120067A
:1010600003D480200443761E1DE000981CF0FCFD94
:10107000002825D0012149020C43009807AA0F99A6
:1010800003323038761E914208D208700F98401C07
:101090000F90200607D50998401E03E0200602D4D1
:1010A0000998401C0990A00502D51399681C086096
:1010B000B9696D1C129888470090002ECCDC59E06D
:1010C000002E57DD0098652801D0452852D1A00593
:1010D00050D5032000028443B9696D1C761E129816
:1010E00088470090002E0CDD2B2804D02D2808D135
:1010F000FF2001300443B9696D1C12988847761EA1
:101100000090E00501D52D2100E02B21029801700F
:101110000298401C0290019025E001204002044307
:101120000EA902980131761E88420ED200980299CB
:1011300030380006000E087003D1029901988142F0
:101140000AD90298401C029006E0E00501D5244827
:1011500001E0234840420990B9696D1C1298884704
:10116000009013980560002E04DD00981CF07CFDB3
:101170000028D2D1F969129888470F99FF2008708A
:10118000029903AA087000200A900B900CA90AA8E3
:10119000099BFFF76DFEA00502D40120C0431AE7AA
:1011A0002420044209D0E00713D138680B9A0A9929
:1011B000031D3B60006806C00BE00B990A98FFF71F
:1011C000A3FB0146E00704D13868021D3A600068BD
:1011D00001602846FFE60000000014400000F03FD8
:1011E000F1D8FFFF02681378511801601846704764
:1011F00010B5D160044951610449116200211161A7
:10120000114600F051FA10BDE51100005D0A000022
:101210004268002A08D001680B78491C002B03D0D3
:10122000521E06C0184670470121C160881E7047D3
:101230004268002A0BD0C3680168002B07D183687D
:101240008B4204D0491E521C06C00020704700206B
:10125000C0437047F7B582B0029C00272078641C19
:1012600015460197302802D0002D15D015E02078C2
:101270000127641C782804D0582802D0002D09D0FA
:101280000BE0002D01D0102D07D10027102520786C
:10129000641C02E0082500E00A250026009610E004
:1012A0000099012769430818020C294680B271434E
:1012B00000908E183804864201D3012001902078D6
:1012C000641C294600F0E1F90028E9DA03980028B7
:1012D00005D0002F01D0641E00E0029C046001983C
:1012E000002806D01CF0F2FB02210160C81E05B0E8
:1012F000F0BD009930040843F9E710B500230360FE
:1013000000F08EFB10BD002904DA401C490001D119
:1013100040084000704770B40024050C05D110242B
:10132000000402D1002921D01124050E01D10002B0
:101330000834050F01D10001241D850F01D1800063
:10134000A41C002801DB4000641C002908D02025D3
:101350002E1B0D46F540A14000D001212943084332
:1013600001061B1B000ADB1D02D5002070BC704764
:10137000DB05181880180029F8DA401C4900F5D15F
:1013800070BC40084000704710B5002B08DA0024FC
:10139000401C614192185B411A4301D14008400052
:1013A00010BDF0B51FB482B005460C0003D008464E
:1013B0001CF074FB02E01CF071FB20300246009030
:1013C0002146284600F03EF9049B059A04460F4644
:1013D00018431143084314D0184610431BD00098FB
:1013E00040210A1A18460599FFF722FB05460E46CA
:1013F000009A0599049800F025F9084305D00120CA
:1014000004E02046394607B0F0BD0020C11705436F
:101410000E432C43374300990E986305401A790513
:10142000E40A00220C43FD0A0A3002D500200146DE
:10143000E9E70105101969410C9C0D9D00196941EE
:10144000FFF7A2FFDFE70000F0B507460846584067
:1014500087B0C00F049048000E4659004008490864
:10146000BC1A884105D2384631461E4617460B46FF
:1014700002465800400810434CD0300D0390400500
:101480005900400D490D0590401A0290402872DA2B
:1014900018030121000B09050843019004980092EC
:1014A000002805D001995242002088410092019005
:1014B000029840210A1A0199009800F0C3F80546E5
:1014C0000C466B4607CB00F0CDF8C0197141039A6A
:1014D0000E0D0023D71756401A467A40164344D0C3
:1014E000049A002A2DD0029A012A039A15DC1205CB
:1014F000C01A914101263605001C7141D20F059E8C
:10150000D2070093019202962A462346FFF749FF2D
:1015100007B0F0BD38463146FAE71605224A0F46B5
:10152000B218C01AB74101210905001C4F4100182B
:101530007F41114618187941E20F10436D1964413B
:1015400013E0E2076D0815436408C2071443039AC9
:1015500001261205C01A91413605001C7141CE07C3
:10156000400830434908C01851412A462346FFF736
:101570000BFFCDE7FFE7049801224000C117121AC4
:1015800000238B4104983146C417381AA141EEE775
:1015900030B40124E407634030BC55E730B4012483
:1015A000E407614030BC4FE70000E0FF4A00090358
:1015B0000123090B1B0519430A4B10B5520D9A4222
:1015C00002DA0020014610BD064B34339A4203DC98
:1015D0009A1AFFF72DFA10BD034BD21800F032F81B
:1015E00010BD0000FF030000CDFBFFFF10B5002978
:1015F00004DB0124E40740428C412146002B04DB3C
:101600001C460123DB075242A341994200D190427C
:1016100010BD00001CB5094800900948019005461E
:101620000126009C05E0E36807CC33430C3C984757
:101630001034AC42F7D3FEF747FD000034EE010052
:1016400054EE010010B5202A04DB0146203A9140F7
:10165000002010BD914020239C1A0346E34019430B
:10166000904010BD10B5202A06DBCB170846203A63
:101670001041C1170B4306E00B461341D040202414
:10168000A21A91400843194610BD3A2800D23038BA
:10169000202302469A43412A01D310463738884214
:1016A00001D30020C0437047F3B58DB000200A90ED
:1016B00001200B90002608460C300C460990626908
:1016C000012109989047051E2ED0252D2DD0216A85
:1016D0008847002818D06269012109989047216A3B
:1016E00088470028F7D1411E62690998904700E0B9
:1016F000761CA1690D988847216A88470028F7D190
:10170000E1690D988847DAE7A1690D98884707468F
:10171000A84201D1761CD2E7E1690D9888477F1C69
:1017200002D10A98002877D049E1002762693D4636
:101730003946099890472A280CD1626901210998F5
:101740009047012506E00A214F433F18303FEBD474
:1017500010200543626901210998904701463039FC
:101760000A2903D29B498F42DEDCECE7E90600D46C
:10177000994F6C280AD04C2810D0682824D06A28A9
:101780002ED074280CD07A280AD00DE0626901218D
:10179000099890476C2823D004211CE020200543A1
:1017A0006269012109989047A760656065284FD05C
:1017B00026DC582839D01ADC452849D012DC2528E7
:1017C00034D04128B0D143E06269012109989047A3
:1017D000682802D008210D43E6E70120C002DEE7B9
:1017E0000220DCE7462833D047282CD130E05B28A4
:1017F00070D061282CD063286CD0642823D161E09C
:101800006F284FD009DC662822D0672820D06928AD
:1018100026D06E2817D12EE0CDE070284DD0732849
:101820006FD075284ED078280DD154E0A1690D985D
:1018300088470546252800D16CE7E1690D9888475F
:101840006D1C00D16DE7BAE00A224CE00A2252E09A
:10185000012023466A46C0430D99FFF798FBA3E099
:101860002846402108436060A807234601D500228E
:1018700039E000223FE0E80700D020E72068011DA2
:1018800021600068290501D5067018E7290701D5F0
:10189000068014E7A90703D5F117066041600EE73B
:1018A00006600CE72846402108436060A8072346ED
:1018B00001D5082217E008221DE0484928460840C3
:1018C000606016E02846402108436060A807234670
:1018D000BCD5B9E715E02846402108436060A80759
:1018E00007D5234610220120C0430D99FFF702F9C6
:1018F0005AE0234610220120C0430D99FFF79FF9BB
:1019000052E000210C910B460091632802D05B2825
:1019100007D043E0E80601D40120A0600120009038
:101920003CE062690121099890475E2805D10120B9
:101930000C9001466269099890472169002906D1F7
:101940000B4601AA8F00491CD3510829FADB002855
:1019500035D0216900290ED1C117C90E09184A11C5
:10196000930001AA9A1849094901411A01201368F4
:1019700088400343136062690121099890475D28FC
:10198000E5D10C98002808D0002001AB81005A58FE
:10199000401CD2435A500828F8DB01AB01202246F4
:1019A000C0430D99FFF7F0F900280ADA401C06D170
:1019B0000B98002803D00020C0430FB0F0BD0A9858
:1019C000FBE7E90702D10A99491C0A913618002061
:1019D0000B9074E6CCCCCC0CFFFFFF7FF1F7FFFF40
:1019E0000FB400B589B00A460DA9009100230C99E7
:1019F000002ACB60234B0693234B079301D004238B
:101A000000E00023214A0292214A089201930246F3
:101A10006B460020FFF7BBFA09B008BC04B01847BA
:101A2000F0B585B007460020C04301901E46002057
:101A300015460C460091029104903B466A46314699
:101A400004A8FFF7CDFF049902466018002D05D0C9
:101A5000002901D0034600E023462B6000290ED068
:101A6000002A02DD0099814209D0001B01900094F8
:101A70003B466A463146029404A8FFF7B1FF05B021
:101A8000F0BD00001112000031120000FFFFFF7FC7
:101A90005D0A00000EB5054A02920022009213462C
:101AA0000192FFF77EFC03B000BD0000330400008C
:101AB00070B58C180578401C6B075B0F01D103785B
:101AC000401C2A1106D10278401C03E006780E70F3
:101AD000401C491C5B1EF9D12B0705D40023521E64
:101AE0000DD40B70491CFAE70378401CCB1A921CEA
:101AF00003E01D780D70491C5B1C521EF9D5A142F4
:101B0000D8D3002070BD80B515F048FF002080BDFF
:101B100080B582B001A8009001210170042000F07E
:101B200014F801460098017000BF00BF00BF0078A4
:101B30000F2108400B2804D0FFE701A900200870FE
:101B4000FFE701A8007802B080BD80B586B00246EC
:101B500005A8027004AA019211700021039102915C
:101B600000784007810E403103A8009001700121E8
:101B700009F0F7FD01990098097809F0D1FD019865
:101B80000078012806D1FFE703A8017802984018E1
:101B90000290FFE704A8007802280BD1FFE703A812
:101BA00001780A0202998918029141780298401836
:101BB0000290FFE704A80078032810D1FFE703A8EC
:101BC00001780A0402998918029141780A0202995F
:101BD000891802918178029840180290FFE70298D4
:101BE00006B080BD80B584B00290019100F01AF873
:101BF000FFF78EFF002804D1FFE703A9002008703B
:101C00000CE0002000F04DF8022000F068F80320FE
:101C100000F082F803A901200870FFE703A800780C
:101C200004B080BD80B582B00020C043019001A8FF
:101C3000042109F096FD02B080BD80B584B0039008
:101C4000022101910846FFF780FF019A0290029954
:101C500007208143029103990140029808430290B2
:101C60000299104600F090F804B080BD80B584B0B1
:101C70000390022101910846FFF767FF019A029045
:101C80000298072109028843029003984007410DFA
:101C90000298084302900299104600F075F804B0CB
:101CA00080BD80B584B00390002002900520019093
:101CB00001210091FFF749FF009A01460198029126
:101CC00002990C2399430291039989070B0F0299FA
:101CD00019430291029900F057F804B080BD80B515
:101CE00084B0039000200290052001900121009112
:101CF000FFF72BFF009A014601980291029B0321F6
:101D00008B430293039B0B40029919430291029962
:101D100000F03AF804B080BD80B584B00390012093
:101D2000019002210091FFF710FF009A01460198EF
:101D30000291029907235B03994302910399490792
:101D40000B0C029919430291029900F01DF804B09E
:101D500080BD80B584B003900120019002210091E4
:101D6000FFF7F3FE009A014601980291029B0F21B2
:101D70008B430293039B0B400299194302910299F2
:101D800000F002F804B080BD80B586B00191034632
:101D9000019805A90B70049003A80270002202921A
:101DA00009784907890E02AA11700078012804D128
:101DB000FFE7049802A94870FFE703A8007802280B
:101DC00007D1FFE7049802A988700498000A4870B8
:101DD000FFE703A8007803280AD1FFE7049802A9C7
:101DE000C8700498000A887004A840884870FFE70B
:101DF0000398401CC1B202A809F0B3FC06B080BD34
:101E000080B584B00390029101920398FFF715FF0B
:101E10000298FFF72BFF0198FFF79BFF012000902E
:101E2000FFF77AFF009804B080BD80B500F098F904
:101E3000C046C04680BD000080B588B004A80290AE
:101E4000102110F0CDFB1420012103910CF094FD22
:101E50000299039808700D480078C007002804D143
:101E6000FFE704A90220087103E004A9002008711B
:101E7000FFE704A80121019141710021C18009F00F
:101E80007BFA019809F038FA08B080BD301C0020B8
:101E900080B582B0BC48807EC009002801D1FFE730
:101EA00012E00820012100910CF066FD009900204D
:101EB000019001F04DFA019801F07CFAF249887E18
:101EC0007F2210408876FFE702B080BD80B59CB0CD
:101ED0001B9014A8142110F083FB082001210CF0A2
:101EE0004BFD1B98FEF7FCFC724A734BFEF76AFC35
:101EF000002803D1FFE7FFF7CBFFD9E01B98FEF7DF
:101F0000EFFC00226D4BFEF75DFC002804D1FFE7DB
:101F10003F2000061B90FFE71B9821214906FEF792
:101F200043FC002827D1FFE719A807210180654954
:101F3000139102881399C8685207520E7023984370
:101F40008018C860604800684008FEF75CFC099093
:101F50001B988721C905FEF7B0FA01460998FEF7DC
:101F6000E9FAFEF784FC41421AA8018001880020AA
:101F700001F0B4F950E01B985149FEF715FC002818
:101F800027D1FFE719A8022101804E49129102884A
:101F90001299C8685207520E702398438018C8607F
:101FA000494800684008FEF72EFC08901B988121E4
:101FB000C905FEF782FA01460898FEF7BBFAFEF75C
:101FC00056FC41421AA801800188002001F086F9E0
:101FD00021E019A80021079101803A491191028856
:101FE0001199C8685207520E702398438018C86030
:101FF000354800684008FEF706FC1B99FEF79AFA80
:10200000FEF735FC014607984A421AA90A8009885A
:1020100001F064F9FFE7FFE7C248807EC0090028AD
:1020200045D1FFE70FA80190072110F0D9FA1C2035
:10203000012105910CF0A0FC019A0020069050703F
:102040000F21029102F04EFA02990698052202F041
:10205000B9FA0AA80390142110F0C2FA05990820D1
:102060000CF08AFC0399059A069808704871199B30
:10207000CB708A710A718870487001F0AFF90698C8
:102080001AA90491098801F029F904990698098888
:1020900001F040F90599069801F05AF9069801F007
:1020A00075F9A049887E802210438876FFE7FFE714
:1020B0001CB080BD9A9999999999B93F0000E03F69
:1020C00000002043000C00400800002081B00146C1
:1020D0006846017002784C490868D206D20D1F2369
:1020E0001B01984380180860002001B07047C0466B
:1020F00081B0014668460170027803490868904340
:10210000086001B07047C046B42400403E490868EA
:1021100001229043086070473B4908680122104340
:102120000860704782B069460870094800680978FD
:10213000084204D0FFE701A90120087003E001A9CB
:1021400000200870FFE701A8007802B07047C04681
:10215000B0240040014800687047C046A0240040F9
:1021600080B50120FFF7DEFF01280BD1FFE701203A
:10217000FFF7BEFF00F050F8EB49887EFE221040CA
:102180008876FFE780BDC0467800002010B584B097
:1021900002900298002804D1FFE703A904200870E8
:1021A0002DE019490091012001900860022010F0F3
:1021B00047FB0099019B0298427884882243C48897
:1021C0002243448822430089024308681043086080
:1021D000029802780D490868D207520D9B02984375
:1021E000801808600298827A0868D207520F042388
:1021F00098438018086003A900200870FFE703A82F
:10220000007804B010BDC0460424004008240040FB
:1022100003490120086070470149002008607047A9
:10222000C024004080B58EB00D90002002900C902C
:102230000B900A900990089007900690059004A9C9
:1022400003910880B8483F210901411805A8019071
:1022500007220DF087FD019A029B03990D98C95E34
:1022600040180A491BF006FC029A03990D98895EF2
:102270004018FEF72EF80246039804998918018049
:1022800000780EB080BDC046780000200DEC010043
:10229000B0B588B0079006A90591002404940C807D
:1022A0000798095F401800909F48AD21C900421867
:1022B000029240581C490191FEF762FB02460098C9
:1022C000CB175940CB1A19491BF0D4FB0599079835
:1022D000095F4018FDF7FDFF0199059B054602982F
:1022E000069A52191A80079A1B5FD2180392406807
:1022F000FEF746FB02460398CB175940CB1A0C4910
:102300001BF0B8FB049A05990798895E4018FDF701
:10231000E0FF049903460598069AD2180280405EB1
:1023200008B0B0BD78000020A0860100ABEB010032
:10233000B8EB010010B590B00F900DA900200880F7
:1023400055480C9078486D218900405C002800D1E8
:1023500086E075480790F8214058FEF749FA014693
:1023600007980291D92149000491405C17F0AEFC16
:10237000FEF73EFA0146029813F078FA01460798F4
:102380000E91FF21B4310691405CC007810F0CA86B
:102390000890401800210A91405EFEF729FA014694
:1023A0000E9813F095FA0A9A0E900F980DA90B91BA
:1023B000895E401803900E98FEF792FA0246039841
:1023C0000B4637491BF056FB0A9A0B990F98895E0A
:1023D0004018FDF77EFF0B9A034607980D99C91820
:1023E0001180E8214058FEF703FA04990246079845
:1023F0000592405C17F06AFCFEF7FAF90146059871
:1024000013F034FA069B079A0A99044608980E942A
:10241000D25CD207920F8018405EFEF7E9F90146C0
:102420000E9813F055FA0A9A0B990E900F98895E40
:10243000401809900E98FEF753FA024609980B4689
:1024400018491BF017FB0A9A0B990F98895E4018E0
:10245000FDF73FFF0B9902460D988018088016E0A3
:102460000F98002200920DA90191895E40180B4936
:102470001BF000FB009A01990F98895E4018FDF748
:1024800028FF019902460D9880180880FFE7002177
:102490000DA8405E10B010BDE803010043EB010041
:1024A00076EB010067EB010010B590B00F900020B3
:1024B00002900E900D900C900B900A90099008904D
:1024C000079006A90391088004A9202008701648E7
:1024D0004122120183189C794C705C798C701C79B4
:1024E000CC709C780C715B784B71805C887107A80C
:1024F000019007220DF036FC019A029B03990F9878
:10250000C95E401809491BF0B5FA029A03990F9861
:10251000895E4018FDF7DDFE02460398069989188A
:102520000180007810B010BD7800002016EC01008A
:1025300010B58AB004AB019303460198036107AB61
:102540001980826000691E49FDF798FE01460198D6
:1025500041604068002804D1FFE709A901200880F4
:1025600028E001984168C91C416040683B21FDF7A3
:10257000A6FE0146019801600068002804D1FFE72B
:1025800009A90120088015E0019908684968411AE5
:1025900003A801800021405E0E2804D0FFE709A9AE
:1025A0000120088006E0019840680CF0F1FC09A9C0
:1025B0000880FFE7002109A8405E0AB010BDC046B0
:1025C00014EB010010B581B030490868009008682C
:1025D00001221207104308602D4A10680020106085
:1025E0002C4A136810602C4A136810602B4A136839
:1025F00010602B4A136810602A4A136810602A4C36
:1026000022682A4B1A432260294C22681A4322600E
:10261000284C22681A432260274C22681A43226001
:10262000264C22681A432260254C22681A432260F5
:10263000244A14681060244A14681060234A1468FD
:102640001060234A14681060224A14681060224AFD
:1026500014681060214A106818431060204A1068FE
:10266000184310601F4A1068184310601E4A106813
:10267000184310601D4A1068184310601C4A106807
:10268000184310600098086001B010BD2020004081
:102690000C0D02404C0D02408C0D0240CC0D02404E
:1026A0000C1D02404C1D0240000D0240FFFF0000C7
:1026B000400D0240800D0240C00D0240001D02404E
:1026C000401D0240200D0240600D0240A00D02405E
:1026D000E00D0240201D0240601D0240240D02401A
:1026E000640D0240A40D0240E40D0240241D02408E
:1026F000641D024010B596B01C2001210E910CF013
:102700003BF914A80D9007210C910FF069FF0D9A69
:102710000024119494705470147080200B900D213B
:10272000129101F0DFFE0D9AC0200990052103915E
:1027300001F0D8FE03990D9A0E980003139001F052
:10274000D1FE0D9A09980B21069101F0CBFE0D9A4E
:1027500013980C21019101F0C5FE0D9A40200F90B5
:102760000F2101F0BFFE03990D9A099801F0BAFEFE
:102770000D9A0F980221009101F0B4FE03990D9A71
:10278000099801F0AFFE00990D9A139801F0AAFE86
:102790000D9A13980321059101F0A4FE0D9A139848
:1027A0000421109101F09EFE0D9A10990B9801F0F2
:1027B00099FE0D9A0F980E21029101F093FE019956
:1027C0000D9A0F9801F08EFE0D9A12990F9801F054
:1027D00089FE0C990D980FF003FF06990B980D9A3E
:1027E0000E9B94705470137001F07CFE0D9A0B9840
:1027F0000A21089101F076FE06990D9A099801F0D8
:1028000071FE02990D9A139801F06CFE03990D9ACE
:10281000099801F067FE0C990D980FF0E1FE0C99F4
:102820000D980E9A119B837043704271C2700270B2
:102830000FF0D6FE0D9A0E9810995070D07041206E
:102840008001049001F04EFE03990D9A049801F066
:1028500049FE0C990D9A119801F044FE05990D9AC4
:102860000B9801F03FFE0D9A0F9808210A9101F094
:1028700039FE0D9A0F980921079101F033FE0D9A48
:102880000B98062101F02EFE08990D9A0F9801F081
:1028900029FE06990D9A0F9801F024FE07990D9ACA
:1028A000099801F01FFE08990D9A099801F01AFE87
:1028B0000C990D980FF094FE09980A990D9A0E9BA9
:1028C000537001F00FFE0C990D9A0B9801F00AFE5F
:1028D0000C990D980FF084FE0D9A0F980E9901F047
:1028E00001FE0D9A1099119801F0FCFD0D9A1299B4
:1028F000139801F0F7FD0E990F9801F07BFE1099E7
:10290000119801F077FE1299139801F073FE16B03A
:1029100010BD000080B586B004A9002008800BF02F
:10292000BFFD032003900CF061F8022001900CF031
:102930005DF804200CF09CF80CF008F903980CF0FA
:102940006DF80198012102910BF0D8FD11200CF0D7
:1029500079F810200CF076F8039908460CF0D4F8BA
:1029600003980CF09DF8029B039A214921480860C6
:102970002148086021490868059008681B0718432A
:1029800008601F4908689203104308601D490868E1
:10299000082210430860FFE7002004A9095E1A4AD4
:1029A0009142009007DCFFE7184800688009012188
:1029B00048400090FFE70098C007002808D0FFE7D4
:1029C00001200FF07DFF0498401C04A90880E3E774
:1029D000002104A8405E0C49884206DCFFE77C49E0
:1029E0000878012210430870FFE706B080BDC0469A
:1029F000082000405A5A0000A5A5000020200040F1
:102A00008C0D0240002000405702000018200040BA
:102A100080B584B003A93120087002A9482008704D
:102A200001A9682008706946E8208870104808806D
:102A30003E20032201231AF0BFF9012807D1FFE746
:102A40003E206946032201231AF0B6F9FFE79348B6
:102A50006946032202F07EF8012806D1FFE78F487D
:102A60006946032202F076F8FFE704B080BDC04655
:102A7000B1C800007047000080B582B0012008F0A6
:102A800023FC012806D0FFE7022008F01DFC0128E6
:102A90000AD1FFE7012008F007FC022008F004FC3F
:102AA0004B490020887050E0042008F00DFC0128FC
:102AB0000ED1FFE71120012101910BF05DFF02F023
:102AC000FDFB042008F0F0FB0198414988703BE0D1
:102AD000202008F0F9FB012807D1FFE7202008F0AB
:102AE000E3FB3B49022088702DE0802008F0ECFBDE
:102AF000012807D1FFE7802008F0D6FB34490320E6
:102B000088701FE0082008F0DFFB012807D1FFE7ED
:102B1000082008F0C9FB2E490420887011E04020ED
:102B200008F0D2FB012807D1FFE7402008F0BCFBEA
:102B300027490520887003E025490E208870FFE7AB
:102B4000FFE7FFE7FFE7FFE7FFE708F0B9FB02B0A9
:102B500080BDC04680B586B003A802900A210FF060
:102B60003FFD242001210BF007FF02990020C870CF
:102B7000887017480078C007002806D1FFE703A92E
:102B8000032048701348088105E003A9022048701B
:102B900011480881FFE703A900200871487101204E
:102BA000019088710D48009002F00CFB009802F033
:102BB000D3FA0098019902F0EAFA019A1120032150
:102BC00001F082FB0098019902F0D1FA06B080BDB5
:102BD000301C002080F800009AF90000400F0040EF
:102BE00080B58CB00A9007A80C210FF0F9FC0A9868
:102BF0002A49884205D1FFE7042001210BF0BCFEE1
:102C00000EE00A982649884205D1FFE705200121F8
:102C10000BF0B2FE03E00BA9042008703AE0FFE7D6
:102C20000BF068FE07901F48089007A94020087223
:102C3000552048720020049088720A9801F01EFF07
:102C400005A8019007210FF0CBFC1C200121029167
:102C50000BF092FE019A0499029851705071D07055
:102C60001171107041208001039001F03BFC019A2A
:102C70000299039801F036FC029A0499039801F036
:102C8000A1FC029A0398114601F09CFC04980BA940
:102C90000870FFE70BA800780CB080BD000400406E
:102CA00000440040801A060010B592B0119010A8A0
:102CB000099001800220012106910BF05DFE06992A
:102CC0001C200BF059FE5D480190042102F0AAF887
:102CD00001980021089102F093F80699019802F0FA
:102CE0008FF80899019802F0AFF80699019802F060
:102CF000ABF8089A08200324214601F0E5FA0AA857
:102D0000049007210FF06CFC049A06985070D07064
:102D1000802003900521029101F0E4FB0299069ABC
:102D2000039801F04FFC049A0899517040200590D7
:102D300001F0D8FB08990598224601F043FC0CA845
:102D4000079010210FF04CFC069A079B08990998F0
:102D50005980E4029C804B2464020E949202DA8033
:102D6000119A0F92405E022806D0FFE7002110A8BA
:102D7000405E032812D1FFE7002110A8405E022820
:102D800004D1FFE70CA90420487003E00CA9082037
:102D90004870FFE70CA9C020087003E00CA9402090
:102DA0000870FFE7254800900CA902F098F80098F9
:102DB000042102F037F8022000210BF0DDFD12B0F3
:102DC00010BDC04680B58AB00220012103910BF0EE
:102DD000D3FD03991C200BF0CFFD1848009004216F
:102DE00002F020F800980021019102F009F80399FF
:102DF000009802F005F80199009802F025F803996F
:102E0000009802F021F8019A0820032101F05CFAF1
:102E100004A8029007210FF0E3FB0398029A507078
:102E20008020052101F05EFB0199029A0398107140
:102E3000402001F057FB0AB080BDC04600020040B0
:102E400010B592B0119010A8099001800320039052
:102E5000012106910BF090FD06991C200BF08CFDD2
:102E60003D480290042101F0DDFF02980021089105
:102E700001F0C6FF0699029801F0C2FF0899029876
:102E800001F0E2FF0699029801F0DEFF0399089A2B
:102E9000092001F019FA0AA8049007210FF0A0FBFD
:102EA000049A069908985170D17001F01BFB06999D
:102EB00008980222059201F085FB049A0899517046
:102EC000084601F00FFB059A0899084601F07AFBC5
:102ED0000CA8079010210FF083FB079908984880F1
:102EE00088800BF007FD069A079B0899044609980D
:102EF0000E949202DA80119A0F92405E022806D058
:102F0000FFE7002110A8405E032812D1FFE700214F
:102F100010A8405E022804D1FFE70CA904204870E5
:102F200003E00CA908204870FFE70CA9C020087036
:102F300003E00CA940200870FFE7074801900CA9A6
:102F400001F0CDFF0198042101F06CFF0320002166
:102F50000BF012FD12B010BD0040004080B586B0ED
:102F600003A802900A210FF03BFB112001210191DF
:102F70000BF002FD019902980222027000224270B9
:102F8000202282700A02828007225202C2808903B4
:102F9000018102F0A1F902F099F906B080BD0000AC
:102FA00080B58CB006A8009007210FF019FB1C20FB
:102FB000012105910BF0E0FC009A05980021029197
:102FC000917050708020019001F08CFA0299019864
:102FD0000222049201F0F6FA08A803900E210FF0E5
:102FE000FFFA059913200BF0C7FC0299059B039883
:102FF000017003228270C370017105234371C28086
:103000000172417303F0EEF8054803F06FF904987C
:103010000FF016FC059803F0C5F80CB080BDC04653
:10302000FFFF0000B0B594B0139012A900200690E5
:10303000087011A9059108800CA9887408820F9066
:103040000E900D900C9007A908740A9009900890B2
:10305000079041480521012208F0D6FDFFF7D8FC72
:10306000059906980880FFE7002111A8405E2328F3
:103070003CDCFFE7139B0022019211A80290815EC5
:103080005B181C46803480255B5D1B0164782343FC
:10309000CC0F09194C100CA9039164186370805E61
:1030A000C20F801840104018407818F0E7FC019AD1
:1030B0000399034602980493805EC20F8018401063
:1030C0004018407818F0E6FC019B0299039A0446E8
:1030D00004980019C95ECB0FC918491089184870A7
:1030E000FFE71198801C11A90880BDE711A90020F5
:1030F0000880FFE7002111A8405E1F2818DCFFE7C9
:103100001398002211A9895E08180246A432A4234C
:10311000C05C000152781043CA0F8918491007AAF1
:1031200089184870FFE71198801C11A90880E1E711
:1031300013990846C63080314422FDF76DF83E20D1
:103140000CA91322012319F037FE044807A9112204
:1031500001F000FD14B0B0BD081D024000040040A5
:1031600010B592B0119010A809900180012106912C
:1031700008460BF001FC06991C200BF0FDFB3E48B5
:10318000019004210BF024FE0198002108910BF01E
:103190000DFE069901980BF009FE089901980BF0B5
:1031A00029FE069901980BF025FE069A0720029049
:1031B0000321059101F088F802990AA804900FF004
:1031C0000FFA049A089850700221039101F08AF9CD
:1031D0000399069A089801F0F5F9049A0599069B57
:1031E0000898537001F07EF90599069A089801F045
:1031F000E9F90CA8079010210FF0F2F90698079949
:10320000089A4A80119A0F92400288800BF072FB54
:103210000899024609980E92405E022806D0FFE700
:10322000002110A8405E032812D1FFE7002110A85A
:10323000405E022804D1FFE70CA90420487003E097
:103240000CA908204870FFE70CA9C020087003E013
:103250000CA940200870FFE7074800900CA90BF06C
:1032600014FE009804210BF0B3FD012000210BF0A7
:1032700083FB12B010BDC0460001004080B50F2096
:1032800001210BF079FB00200C210BF0A9FE0BF0C3
:10329000C5FE80BD80B582B01020019001210BF0E9
:1032A0006BFBFEF733FF00F007F8019800210BF0ED
:1032B00063FB02B080BD000007490868022210408D
:1032C0000860704780B5044908680122104308600F
:1032D00002200FF0B5FA80BD0024004010B585B083
:1032E00000910146009804AA117003A9088002A861
:1032F0000023037012781202664BD21801920B88D9
:10330000019A1168114C2140C9181160007805B06C
:1033100010BDC04610B585B000910146009804AAC2
:10332000117003A9088002A800230370127812020A
:10333000584BD21801920B88019A5168034C2140D6
:10334000C9185160007805B010BDC0460000FFFFED
:1033500010B585B000910146009804AA117003A928
:10336000087002A80023037012781202494BD21889
:1033700001920B78019A116BDB07DB0C012424030B
:10338000A143C9181163007805B010BD83B002A92C
:10339000087001A800220270097809023D4A8918C4
:1033A0000091009AD16801231943D160007803B0DD
:1033B0007047C04683B002A9087001A800220270BD
:1033C00009780902334A89180091009AD1680123CB
:1033D0009943D160007803B07047C046B0B585B05E
:1033E00000910246009804A90A70039002A80022E6
:1033F000027009780902274A8918019103990B780C
:10340000019AD1689B079B0C03242403A143C9188C
:10341000D16003994B78019AD168DB079B0D012499
:103420006502A943C918D16003998B78019AD168C4
:10343000DB07DB0D2402A143C918D1600399CB78C7
:10344000019AD1685B075B0E7024A143C918D16053
:1034500003990B79019AD168DB071B0F0824A1435C
:10346000C918D16003994B79019AD168DB075B0FCA
:103470000424A143C918D16003998B79019AD168BA
:10348000DB079B0F0224A143C918D160007805B067
:10349000B0BDC046000C004080B5C046C04680BDEF
:1034A00084B0039002A8017001A900200870694649
:1034B00008700870FFE76846007802A9097888421A
:1034C0000EDAFFE7039869460978415C01984018D5
:1034D00001A90870FFE70098401C69460870EAE7F8
:1034E00001A8007804B0704784B0039002A801706E
:1034F00001A900200870694608700870FFE7684657
:10350000007802A9097888420EDAFFE70398694635
:103510000978415C0198401801A90870FFE70098FC
:10352000401C69460870EAE701A8007804B07047BB
:1035300085B0049003A8017002A95A20087001A95F
:1035400000200870049A00920870FFE701A8007834
:1035500003A9097888420EDAFFE7009801A90978E3
:10356000415C0298401802A90870FFE70198401CCE
:1035700001A90870EAE702A8007805B0704785B095
:10358000049003A8017002A95A20087001A9002024
:103590000870049A00920870FFE701A8007803A958
:1035A000097888420EDAFFE7009801A90978415CA2
:1035B0000298401802A90870FFE70198401C01A971
:1035C0000870EAE702A8007805B0704785B004905B
:1035D00003A8017002A95A20087001A900200870F0
:1035E000049A00920870FFE701A8007803A90978FF
:1035F00088420EDAFFE7009801A90978415C029839
:10360000401802A90870FFE70198401C01A9087042
:10361000EAE702A8007805B0704785B0049003A8D7
:10362000017002A95A20087001A900200870049AAC
:1036300000920870FFE701A8007803A90978884282
:103640000EDAFFE7009801A90978415C029840185A
:1036500002A90870FFE70198401C01A90870EAE779
:1036600002A8007805B0704785B0049003A80170E7
:1036700002A95A20087001A900200870049A00923B
:103680000870FFE701A8007803A9097888420EDADC
:10369000FFE7009801A90978415C0298401802A947
:1036A0000870FFE70198401C01A90870EAE702A82A
:1036B000007805B0704785B0049003A8017002A996
:1036C0005A20087001A900200870049A009208701E
:1036D000FFE701A8007803A9097888420EDAFFE71E
:1036E000009801A90978415C0298401802A9087065
:1036F000FFE70198401C01A90870EAE702A80078DA
:1037000005B0704785B0049003A8017002A95A2043
:10371000087001A900200870049A00920870FFE761
:1037200001A8007803A9097888420EDAFFE700981B
:1037300001A90978415C0298401802A90870FFE7C6
:103740000198401C01A90870EAE702A8007805B0BA
:103750007047000080B586B0049003A8017002AAEB
:10376000002111700078012804DCFFE705A9002082
:103770000870A8E004980078682804D0FFE705A93D
:10378000012008709FE003A800780A2804DCFFE706
:1037900005A90020087096E00498007A682804D0F3
:1037A000FFE705A9012008708DE00498407A002801
:1037B00009D0FFE70498407A012804D0FFE705A963
:1037C000012008707FE00498807A472804DBFFE737
:1037D00005A90120087076E00498407899281ED148
:1037E000FFE704988078992819D1FFE70498C078FA
:1037F000992814D1FFE704980079992805D0FFE7AC
:103800000498407999280AD1FFE70498807999288B
:1038100005D1FFE70498C079992821D0FFE702A9D4
:1038200000200870FFE702A80078062817DCFFE7F1
:10383000049802A90A7810184078264989183F226E
:103840001201895C884204D0FFE705A901200870B5
:1038500039E0FFE70298401C02A90870E3E7FFE7A0
:1038600003A800780499897A0D31884204DAFFE7C9
:1038700005A90020087026E00498817A0A18D27AF7
:1038800001920B31C9B2FFF70BFE01460198884245
:1038900004D0FFE705A90120087014E00499887A94
:1038A0004018007B162804D0FFE705A90120087006
:1038B00009E00749192008800499487A02F050FD70
:1038C00005A90870FFE705A8007806B080BDC046CE
:1038D000D40700207800002080B588B0069005A8A5
:1038E000017004A9002008709648807C4007C00F32
:1038F000002804D0FFE707A9002008701EE105A8F2
:103900000078002804DCFFE707A90020087015E113
:103910008C48007C012800D07EE08B488A21405CE6
:103920000390C02804D0FFE70398C1284CD06FE073
:1039300005A80078032804DCFFE707A90020087029
:10394000FCE0069800784F2818D1FFE706984078E9
:103950004B2813D1FFE7069880780D280ED1FFE79A
:103960000698C0780A2809D1FFE7774A8223D15CFC
:1039700004200143D15407A90870DFE006980078BD
:1039800045281CD1FFE706984078522817D1FFE759
:1039900006988078522812D1FFE70698C0784F2801
:1039A0000DD1FFE705A80078062804DCFFE707A98A
:1039B00000200870C2E007A907200870BEE0FFE7FA
:1039C00007A901200870B9E006980078C02804D043
:1039D000FFE707A901200870B0E005A800780528D6
:1039E00004DCFFE707A900200870A7E056498222FF
:1039F000885C04231843885472B608464030808897
:103A00008880086C086062B607A90620087095E0F7
:103A100007A90120087091E04A48007C022858D18B
:103A2000FFE705A80078022804DCFFE707A90020CB
:103A3000087083E00698007843499922895C88429F
:103A400009D0FFE706980078FF2804D0FFE707A910
:103A50000120087072E006984078002809D0FFE73E
:103A600006984078012804D0FFE707A901200870D4
:103A700064E006988078212804DBFFE707A901208D
:103A800008705BE005A8007806998978091D8842CE
:103A900004DAFFE707A9002008704FE00698817854
:103AA000C91C425C0292C9B2FFF71EFD0146029892
:103AB000884204D0FFE707A9012008703EE006997C
:103AC00048788A78121DD2B205F076F807A90870F6
:103AD00034E01C48007C00282AD1FFE71A488A21DC
:103AE000405C0190732804D0FFE7019874280AD045
:103AF0001AE0069800781349C8753C20088307A986
:103B0000012008701AE00F493C20088306980078CD
:103B1000FF2805D0FFE7069800780A498875FFE777
:103B200007A90120087009E007A90120087005E035
:103B3000FFE7FFE707A901200870FFE707A8007863
:103B400008B080BDE4070020E020002080B586B0EA
:103B5000049003A801700078012804DCFFE705A9A0
:103B600000200870B9E0049800785E49E122520014
:103B7000895C884209D0FFE704980078002804D0C7
:103B8000FFE705A901200870A7E004984078032802
:103B900013D0FFE70498407806280ED0FFE704987A
:103BA0004078102809D0FFE704984078112804D005
:103BB000FFE705A9012008708FE003A80078072817
:103BC00004DCFFE705A90020087086E0049840782F
:103BD000102830D1FFE70498807908280ED0FFE73D
:103BE00004988079042809D0FFE704988079022896
:103BF00004D0FFE705A9012008706EE00498417920
:103C000049008079884204D0FFE705A901200870A7
:103C100063E003A80078049989790931884204DABD
:103C2000FFE705A90020087057E004988079093063
:103C300002A908802FE004984078112826D1FFE7D8
:103C4000049880797B2804DBFFE705A90120087030
:103C500043E00498417949008079884204D0FFE725
:103C600005A90120087038E003A800780499897933
:103C70000931884204DAFFE705A9002008702CE02A
:103C800004988079093002A9088003E002A908207D
:103C90000880FFE7FFE70498002202A9895E0A185E
:103CA000521E12781202891E435CD218019289B208
:103CB00011F058FF01460198884204D0FFE705A99A
:103CC0000120087009E004994878002302AAD25E16
:103CD00004F0D6FF05A90870FFE705A8007806B034
:103CE00080BDC0467C21002080B5C046C04680BD56
:103CF00080B582B0014601A801800021405E002805
:103D000004D1FFE71F2014F04DF819E0002101A8AD
:103D1000405E012804D1FFE71F2014F043F80EE0B5
:103D2000002101A8405E032804D1FFE71F2014F002
:103D300039F803E01F2014F035F8FFE7FFE7FFE74D
:103D400002B080BD80B5B8B0379036A8018035A9E3
:103D500000201290088033903290319030902F9054
:103D60002E902D902C902A90299028902790269084
:103D7000259024902390EB482090EB481F90EB482F
:103D80001E90EB481D90EB481C9037981D99FCF74E
:103D900075FA3490349800282AD0FFE71D98FCF774
:103DA00098FA014634984018349034981BA9109121
:103DB0001AF00EFBE0491191FCF77FFBFCF73EFD8A
:103DC00010991A901B98401C1AF002FB1199FCF7ED
:103DD00074FBFCF733FD109919901B98401C1AF0E6
:103DE000F7FA1199FCF769FBFCF728FD1890FFE73B
:103DF00037981C99FCF742FA34903498002818D070
:103E0000FFE71C98FCF765FA014634984018349097
:103E10003498007830280BDBFFE734980078392895
:103E200006DCFFE73498FCF7E2FA16A90880FFE702
:103E3000FFE737982099FCF721FA3490349800284E
:103E400000D1FEE02098FCF744FA0146349840186F
:103E5000349034980078302828DBFFE734980078D5
:103E6000392823DCFFE73498FCF7C1FA1590159840
:103E7000B249884219DCFFE7B1480E900021418623
:103E800015991122920180180F90418015990171A6
:103E90000C21FFF7E9FB0E9902460F9802734522A9
:103EA00012018A5810219047FFE7FFE737981E99C3
:103EB000FCF7E4F93490349800284AD0FFE71E98C4
:103EC000FCF707FA01463498401834903498FCF710
:103ED0008EFA014614A801800088012838DBFFE72C
:103EE0009848DC21405C002815D1FFE714999448DC
:103EF0000C90954A80180D9041833921FFF7B4FB4F
:103F00000C9902460D98914BCA54492212018A58C5
:103F10003A2190471BE08B48DC21405C012815D1F9
:103F2000FFE7149986480A90874A80180B90C1864B
:103F30003921FFF799FB0A9902460B98834BCA5423
:103F4000492212018A583A219047FFE7FFE7FFE72D
:103F5000FFE737981F99FCF791F9349034980028BF
:103F60006ED0FFE71F98FCF7B4F90146349840186B
:103F7000349034987649FCF781F93499411A13A8A2
:103F800001800021405E072859DBFFE7002113A8CC
:103F9000405E192853DCFFE76A48DC21405C0028BA
:103FA00022D1FFE7664808906749002307934350F2
:103FB00040180990037643610361C36083604360E6
:103FC000349913AAD25EFCF727F909983921FFF733
:103FD0004BFB0899024609985C4BCA5449221201CE
:103FE0008A583A21904729E0F248DC21405C0128B8
:103FF00023D1FFE75248059053494018069000230B
:1040000004930363C362836243620362C3611C302F
:104010000376349913AAD25EFCF7FEF8069839218C
:10402000FFF722FB059902460698484BCA544922DD
:1040300012018A583A219047FFE7FFE7FFE7FFE7C1
:10404000FFE7444801218902FCF70DF900200290A6
:1040500033903290319030902F902E902D902C9064
:104060003748CD21890041182CA801901922FCF76E
:10407000D3F8019A029B379835A90391C95E40187D
:10408000354919F0F7FC029A03993798895E401870
:10409000FCF71FF9029A039903463598C018088067
:1040A0003798895E4018FEF7BDF8029A03990346D7
:1040B0003598C01808803798895E401836A90A8854
:1040C000264919F0D7FC029A03993798895E40185F
:1040D000FCF7FFF8029A039903463598C018088048
:1040E0003798895E40181E4919F0C4FC029A03995A
:1040F0003798895E4018FCF7ECF80299034603985C
:10410000359AD2180280405E012808DBFFE7359817
:10411000144908818878022210438870FFE7002044
:1041200038B080BD1EEB01000FEB010023EB010056
:1041300029EB010018EB010000007A44FFFF0000AA
:1041400078000020D8090020540400008D040000ED
:1041500036EC0100BC1700202FEB010090EB0100B2
:104160003EEB010084170020B0B582B001A9002009
:104170000870FFE7134801210902415C8030FFF716
:10418000E9FA014601A801700078012811DBFFE778
:1041900072B601A805780B4B1846803041190122F0
:1041A00014021A5D521B1A55D2B2FCF735F862B6EA
:1041B000FFE7FFE701A800780028DBDCFFE702B09B
:1041C000B0BDC046DC1F002010B584B003A900209C
:1041D0000870FFE715488021415C4030FFF77CFB09
:1041E000014603A801700078012816DBFFE772B6CC
:1041F00003A803780D4A029210464030C11880246B
:104200000194125DD21AFCF707F8019A0299039BF8
:10421000885CC01A885462B6FFE7FFE703A80078FD
:104220000028D7DCFFE704B010BDC046E020002026
:1042300080B582B001A900200870FFE71F48032164
:10424000C901415CC030FFF781FC014601A8017043
:10425000007801282ADBFFE772B601A80078174929
:104260000322D201895C884207DDFFE7134803215E
:10427000C901405C01A90870FFE7019B0F480321B9
:10428000C901425CD21A4254405C01280CDBFFE7B2
:1042900001A80178094A1046C03041180323DB0108
:1042A000D25CFBF7B9FFFFE762B6FFE7FFE701A8C3
:1042B00000780028C2DCFFE702B080BD7C2100202E
:1042C00080B5FEF77FFD80BD80B588B0034607A8A6
:1042D0000290037006AB0393197005A904910A704C
:1042E0000021019140560BF081F9019A029803993F
:1042F000805609780BF0C0F904980078012806D19F
:10430000FFE7002107A840560BF0A0F905E00021C7
:1043100007A840560BF080F9FFE708B080BD80B5D4
:1043200084B0019101460198039102A90880039885
:104330000022895E10F098FD04B080BD80B5C046B3
:10434000C046C046C04680BD82B001900091019831
:1043500000680099C8400121084002B07047000081
:1043600010B588B0079006A80190018005A90491B6
:10437000002000900870E9480D4940180290012182
:1043800003918902FBF76FFF009B019A029807993E
:10439000D25EFBF741FF03990498069AE04B1A811D
:1043A0001A78802422431A700170007808B010BD7A
:1043B0009A080000D809002010B586B0D7480079C7
:1043C000002807D1FFE717F0ABFA1B480A210AF0D3
:1043D0001DFC2FE0D2484089002803D1FFE700F000
:1043E0006DF926E015480DF0D9FD002820D0FFE733
:1043F00013480DF0D3FD05900598002815D0FFE770
:10440000059804A901910A220292FBF7ABFF0199DA
:10441000029AC34B0393962418550498401CFBF74B
:10442000A1FF039997228854FFE713F01BFFFFE7D2
:10443000FFE7FFE706B010BDF5E80100D5E8010091
:1044400092E9010080B584B00A46014603A80180C4
:1044500002A90A700088054A801809780022019292
:1044600007F0D2FB019804B080BDC046100E024098
:1044700080B586B0134600910146009805AA1180C8
:1044800004A9087003A803700078800012888018BF
:10449000134A80180290029809780022019207F0CE
:1044A000B3FB019806B080BD80B586B0134601917C
:1044B0000146019805AA118004A9087003A8037099
:1044C0000078800012888018054A801802900298AF
:1044D0000978012207F098FB002006B080BDC04695
:1044E000300D024010B586B00B46014605A800907D
:1044F000018004A901910B7003920088464A80183C
:1045000009780022029207F07FFB00980199029A35
:1045100003880C78A4001B19354C1A5100884A4AAC
:1045200080180978039A127807F06EFB00980199B9
:1045300000881E4A80180978039A527807F064FBB5
:104540000098019900881A4A80180978039A92788D
:1045500007F05AFB009801990088164A80180978DC
:10456000039AD27807F050FB009801990088124A0C
:1045700080180978039A127907F046FB0098019990
:1045800000880E4A80180978039A527907F03CFB9C
:10459000029803998B790A4A1168DB071B0C0124E6
:1045A000E403A143C918116006B010BD000D02401C
:1045B0001C0D0240200D0240240D02402C0D024033
:1045C000080F024084B0134600910246009803A9E8
:1045D0000A8002AA107001A8037000780988127876
:1045E00092008918024A8850002004B07047C046E3
:1045F000000C024080B582B00A46014601A8018045
:1046000069460A700088044A80180978012207F078
:10461000FBFA002002B080BD0C0D024080B584B0D2
:1046200013460A46014603A8018002A90A7001AA9E
:1046300013700088044BC0180978127807F0E4FA68
:10464000002004B080BDC046080D024080B533484C
:10465000407D002808DCFFE73049487D401C487554
:10466000322013F09FFB02E00DF03EFCFFE780BD1F
:1046700080B52A48407D002808DCFFE72749487DAF
:10468000401C4875322013F08DFB15E0234800894B
:10469000012807DBFFE712F043FA20490889401E92
:1046A000088108E01E490878202210430870FF2086
:1046B00013F078FBFFE7FFE780BDC04680B51748E1
:1046C0000221405E002807DCFFE714490020087142
:1046D0004888401C488008E01149087804221043AB
:1046E0000870FF2013F05EFBFFE780BD80B50B482C
:1046F0000089012807DBFFE712F012FA0749088951
:10470000401E088108E006490878202210430870FE
:10471000FF2013F047FBFFE780BDC046E00A002002
:10472000D809002081B000200090FFE70098002801
:1047300001D1FFE7FAE701B0704780B5C046C04637
:1047400080BD80B5C046C04680BD000080B584B045
:10475000A54801900B2100910022039207F054FA22
:104760000099039A9F4807F04FFA00F0BDF80198AE
:104770000A210291012207F047FA00F0B5F80198EA
:104780000299039A07F040FA00F0AEF804B080BD39
:1047900080B582B069460820087092480B2101223A
:1047A00007F032FAFFE70198400001A908708E482F
:1047B0000A21012207F028FA00F096F849480B2157
:1047C000FFF7C2FD012806D1FFE701980121084348
:1047D00001A90870FFE784480A21002207F014FAB3
:1047E00000F082F80098401E69460870FFE700213B
:1047F000684640560028D6DCFFE7002101A8405655
:1048000002B080BD80B58CB00AA9087009A9082043
:104810000870FFE709AA1078411E117000282ED0F9
:10482000FFE70AA800780006002806D5FFE76E48D3
:104830000B21012207F0E8F90CE06B480B210791EE
:104840000022089207F0E0F90799089A654807F0F6
:10485000DBF9FFE700F048F8634805900A2106916C
:10486000012207F0D1F900F03FF8059806990022DF
:1048700007F0CAF90A9840000AA90870CAE759481F
:104880000B2104910122039207F0BEF900F02CF8ED
:10489000039A55480A2107F0B7F900F025F8049962
:1048A0001048FFF751FD01280AD1FFE74E480A21C1
:1048B0000122029207F0A8F902980BA908700BE0F8
:1048C00049480A210022019207F09EF900F00CF8F5
:1048D00001980BA90870FFE700210BA840560CB007
:1048E00080BDC046440D024081B069460720087073
:1048F000FFE7002168464056012805DBFFE70098E6
:10490000401E69460870F4E701B0704780B584B076
:1049100034480B210122019207F076F9FFF7E4FFFA
:10492000019A314802900A21039107F06DF9FFF7CF
:10493000DBFF02980399002207F066F9FFF7D4FF26
:1049400004B080BD80B586B0274803900A21049149
:104950000122009207F058F9009A224801900B2199
:10496000029107F051F9FFF7BFFF02990398002267
:10497000059207F049F901980299059A07F044F960
:10498000FFF7B2FF03980499059A07F03DF906B0C6
:1049900080BDC04680B586B0124803900B210491BB
:1049A0000022019207F030F9019A04990E48029012
:1049B00007F02AF9FFF798FF02980A2101220592D1
:1049C00007F022F9FFF790FF03980499059A07F082
:1049D0001BF9FFF789FF03980499059A07F014F96A
:1049E00006B080BD400D0240480D024080B586B043
:1049F000009101460098059104A9087003AA02924B
:104A0000012010700598083009780022019207F003
:104A1000FBF8019902980170007806B080BD82B061
:104A20000190684601210170019A91680823994319
:104A3000916000210170007802B0704782B0009050
:104A4000009880680007002804D5FFE701A901202D
:104A5000087003E001A900200870FFE701A80078B2
:104A600002B0704782B00190684600210170019940
:104A700049690170007802B07047000080B586B0C7
:104A80000490039102A90120087004982F498842DC
:104A900009D1FFE72E490868102290430860086892
:104AA0001043086008E02A49086820229043086003
:104AB000086810430860FFE70499002088600398A5
:104AC000007A049988600398416809010068884267
:104AD00004D2FFE705A90120087033E00398007AAB
:104AE00040281DD1FFE70499012008600399086858
:104AF0004968FBF725FFC008411E01A80170007836
:104B0000082805DCFFE70498002100F03EF9FFE7E4
:104B1000049801A9097800F026F902A908700DE0AF
:104B20000499002008600399487A40008A7A10436B
:104B300048720398407A04990861FFE7029805A932
:104B40000870FFE705A8007806B080BD00040040AB
:104B50002820004080B58CB00A900991089200206E
:104B6000079006AA0121117005A9087004A9087010
:104B70000898002804D1FFE706980BA90870EEE01A
:104B80000A98052100F001F9FFE7FFE70A98FFF70F
:104B900055FF00280CD1FFE70798401C07900798A5
:104BA000652804DBFFE706980BA90870D7E0EDE75E
:104BB000002007900A98FFF755FF014603A80170EF
:104BC000007808380290302800D98DE002988100E2
:104BD00001A040588746C0469D4C0000E94C0000AB
:104BE000E94C0000E94C0000E94C0000E94C0000F1
:104BF000E94C0000E94C0000AF4C0000E94C00001B
:104C0000E94C0000E94C0000E94C0000E94C0000D0
:104C1000E94C0000E94C0000C14C0000E94C0000E8
:104C2000E94C0000E94C0000E94C0000E94C0000B0
:104C3000E94C0000E94C0000E74C0000E94C0000A2
:104C4000E94C0000E94C0000E94C0000E94C000090
:104C5000E94C0000E94C0000C14C0000E94C0000A8
:104C6000E94C0000E94C0000E94C0000E94C000070
:104C7000E94C0000E94C0000E74C0000E94C000062
:104C8000E94C0000E94C0000E94C0000E94C000050
:104C9000E94C0000E94C0000E74C00000A980521AF
:104CA000FFF7A4FE0A987C2100F086F836E00A9807
:104CB0000521FFF79BFE0A987C2100F07DF82DE08E
:104CC00005A800780899884208D2FFE70A98099950
:104CD00005AA1278895C00F06FF8FFE70598401C80
:104CE00005A908701AE0FFE704A80078012809DC8C
:104CF000FFE70498401C04A908700A98052100F0F9
:104D000044F80AE00A980521FFF770FE0A98FFF7B9
:104D100086FE06980BA9087021E0FFE70A98FFF7C6
:104D20007EFE05A800780899884210D9FFE70A9806
:104D30000421019100F029F801200DF081FD019975
:104D40000A98FFF753FE0A98FFF769FE00E01CE798
:104D500006A90020087006980BA90870FFE70BA8A9
:104D600000780CB080BD84B000910146009803919A
:104D700002A9087001A8012202700978039A516003
:104D800000210170007804B0704780B586B00191B1
:104D900001460198059104A9087003A80290012218
:104DA000027005980830097806F02EFF029800215D
:104DB0000170007806B080BD84B000910146009873
:104DC000039102A9087001A8012202700978039AD0
:104DD000D16000210170007804B0704780B5C046F2
:104DE000C04680BD80B500F0FBF800F047F980BDFB
:104DF00080B500F053F980BD80B500F06FF980BD3B
:104E000080B584B0009101460098039102A9087012
:104E10000398143009780022019206F0F5FE0198FB
:104E200004B080BD80B584B0009101460098039124
:104E300002A908700398001D09780022019206F06B
:104E4000E3FE019804B080BD80B584B000910146B6
:104E50000098039102A908700398001D09780022A8
:104E6000019206F0D1FE019804B080BD80B584B0F7
:104E7000019101460198039102A908700398001D51
:104E80000978012206F0C0FE002004B080BD80B584
:104E900084B0019101460198039102A9087003981A
:104EA000001D0978012206F0AFFE002004B080BD8D
:104EB00080B586B0019101460198059104A908705A
:104EC00003AA029200201070059810300978FFF7AD
:104ED0003BFA014602980170007806B080BD80B5AB
:104EE0008CB00A90099108A901200870022007904F
:104EF00003200690042005900020039009980028C4
:104F000004D1FFE70BA9042008704BE00A990020A8
:104F10004860099948884A781043CA8810438A88AB
:104F20001043097808430A99486009980078402896
:104F300005D0FFE709980078C0282CD1FFE7099831
:104F4000C088C1097F208000014005A8405804A9FD
:104F500000910880099801908068FBF754FC009943
:104F6000024601980292C06809888840FBF74BFC12
:104F700001460298FBF7DEFA039003983F210906E9
:104F8000FBF742FAFBF75AFC0A9988610A98042158
:104F9000FFF76CFFFFE708A90020087008980BA92D
:104FA0000870FFE70BA800780CB080BD81B00090BE
:104FB00000980068C0B201B0704782B001906846A6
:104FC0000170027801990868FF23984380180860EF
:104FD000002002B0704780B5C046C04680BD0000CA
:104FE00080B5234800F0E3F801283FD1FFE72048CF
:104FF00000F0B2F81F48A021425A521C4252405EB3
:10500000022832DBFFE71B48A022002181529821B1
:105010004058002819D0FFE7164898214258521EE0
:105020004250405800280FD1FFE71148002100F0FE
:105030009EF8114908680822904308600D49887E4F
:10504000BF2210408876FFE70EE00948002100F0FB
:105050008EF8094908680822904308600549887E4F
:10506000BF2210408876FFE7FFE7FFE780BDC0461C
:10507000000F0040780000200C0F004080B506486B
:1050800000F095F8012806D1FFE7034800F064F826
:105090000CF03EFEFFE780BD400F004080B50E489B
:1050A0000121FFF705FF002807D0FFE70A4801218B
:1050B000FFF7A6FE14F098FFFFE707480021FFF76F
:1050C000F7FE002807D0FFE703480021FFF798FE0E
:1050D00014F05EFFFFE780BD0002004080B50E487F
:1050E0000121FFF7E5FE002807D0FFE70A4801216C
:1050F000FFF786FE14F0DCFFFFE707480021FFF70B
:10510000D7FE002807D0FFE703480021FFF778FE0D
:1051100014F0A2FFFFE780BD0040004081B00146CF
:10512000684601700B4A1168042319431160007826
:10513000012806D1FFE707490868022210430860EA
:1051400005E004490868022290430860FFE730BF89
:1051500001B0704710ED00E080B582B00190019879
:1051600014300022114606F04FFD02B080BD80B51C
:1051700084B0019101460198039102A90870039837
:105180000C300A78002106F03FFD04B080BD80B5E8
:1051900084B0019101460198039102A90870039817
:1051A0000C300A780A2106F02FFD04B080BD80B5CE
:1051B00082B00190019810300021FFF7C5F802B0CD
:1051C00080BD000010B584B0029001917D20C00028
:1051D00069460880019802780299C8685207920CC3
:1051E0000723DB0298438018C8600198427802992F
:1051F000C8689207920E302398438018C8600198BF
:1052000082780299C868D207920D01235C02A043FC
:105210008018C8600198C2780299C868D207D20D78
:105220001B0298438018C860019802790299C868E7
:10523000D207120F082398438018C860019842795A
:105240000299C868D207520F042398438018C86097
:10525000019882790299C868D207920F0223984375
:105260008018C860FFE76A461088411E1180002838
:1052700012D0FFE70298C0680006C00F002801D0D6
:10528000FFE709E068460088002804D1FFE703A98A
:10529000092008700CE0E6E7019802890299486845
:1052A000054B18408018486003A900200870FFE7EC
:1052B00003A8007804B010BD0000FFFF0249086891
:1052C00001229043086070472C2400400C49086874
:1052D000012210430860704781B000900849002007
:1052E0000860009A107893881843D388184353783D
:1052F00018431389184392781043086001B070472F
:105300002824004010B581B06A461070E848014674
:1053100080310B7D012423400B7513781030C35C62
:105320001C090B7D23430B751278805C0F22104003
:10533000C87401B010BDC04610B582B001AB187082
:105340001A78DB48014610318A5C14090246803223
:1053500094741B78C95C0F23194051743B21405C45
:10536000012830D1FFE7D2486821405E401C002868
:1053700021D1FFE7F9486421405CC00700281AD01A
:10538000FFE7F6486421405C8007C00F002808D082
:10539000FFE7F2499222885C012318438854009069
:1053A00007E0EE499222885CFE2318408854009062
:1053B000FFE7009806E0F7499222885C0123184332
:1053C0008854FFE7FFE702B010BDC04610B582B0B9
:1053D00001AB18701A78EF48014610318A5C140945
:1053E0000246803214741B78C95C0F231940D173B4
:1053F0003B21405C022830D1FFE7F4486821405E41
:10540000401C002821D1FFE7F0486421405CC00720
:1054100000281AD0FFE7FB486421405C8007C00FDA
:10542000002808D0FFE7F7499022885C0123184341
:105430008854009007E0F3499022885CFE231840CE
:1054400088540090FFE7009806E0EE499022885CBF
:10545000012318438854FFE7FFE702B010BDC046A0
:1054600010B582B001AB18701A78E64801461031C9
:105470008A5C14090246803294731B78C95C0F233E
:10548000194051733B21405C032830D1FFE7DD48D0
:105490006821405E401C002821D1FFE7D9486421E3
:1054A000405CC00700281AD0FFE7FC486421405C3C
:1054B0008007C00F002808D0FFE7F8498E22885CDB
:1054C000012318438854009007E0F4498E22885C39
:1054D000FE23184088540090FFE7009806E0EF494B
:1054E0008E22885C012318438854FFE7FFE702B04F
:1054F00010BDC04610B582B001AB18701A78E748ED
:10550000014610318A5C14090246803214731B78FC
:10551000C95C0F231940D1723B21405C042830D173
:10552000FFE7DE486821405E401C002821D1FFE7EC
:10553000DA486421405CC00700281AD0FFE7FD4824
:105540006421405C8007C00F002808D0FFE7F949BC
:105550008C22885C012318438854009007E0F549A9
:105560008C22885CFE23184088540090FFE7009846
:1055700006E0F0498C22885C012318438854FFE739
:10558000FFE702B010BDC04610B582B001AB187085
:105590001A78E848014610318A5C140902468032C4
:1055A00094721B78C95C0F23194051723B21405CF7
:1055B000052830D1FFE7DF486821405E401C002805
:1055C00021D1FFE7DB486421405CC00700281AD0E6
:1055D000FFE7FE486421405C8007C00F002808D028
:1055E000FFE7FA498A22885C012318438854009017
:1055F00007E0F6498A22885CFE2318408854009010
:10560000FFE7009806E0F1498A22885C01231843ED
:105610008854FFE7FFE702B010BDC04610B582B066
:1056200001AB18701A78E948014610318A5C1409F8
:105630000246803214721B78C95C0F231940D17165
:105640003B21405C062830D1FFE7E0486821405EFE
:10565000401C002821D1FFE7DC486421405CC007E2
:1056600000281AD0FFE7FF486421405C8007C00F84
:10567000002808D0FFE7FB498822885C01231843F3
:105680008854009007E0F7498822885CFE23184080
:1056900088540090FFE7009806E0F2498822885C71
:1056A000012318438854FFE7FFE702B010BDC0464E
:1056B000AC060020B0B582B001AB1870F7480246C6
:1056C000803291790124214091711C78014610317A
:1056D0000C5D250994792C4394711B78C95C0F23C8
:1056E000194051718022815CF723194081543B217C
:1056F000405C072830D1FFE7E8486821405E401C45
:10570000002821D1FFE7E5486421405CC00700285C
:105710001AD0FFE7E1486421405C8007C00F0028F1
:1057200008D0FFE7DD498022885C082318438854AD
:10573000009007E0D9498022885CF72318408854FC
:105740000090FFE7009806E0FA498022885C082371
:1057500018438854FFE7FFE702B0B0BDAC06002055
:1057600010B581B06A461070F248014680310B795D
:10577000012423400B7113781030C35C1C090B7992
:1057800023430B711278805C0F221040C87001B067
:1057900010BDC046AC06002010B581B06A4610703E
:1057A000E448014680318B78012423408B701378C4
:1057B0001030C35C1C098B7823438B701278805C9B
:1057C0000F221040487001B010BDC046AC0600204A
:1057D000B0B581B06A461070FC49B924085D012358
:1057E00018400855137808461030C35C1D090B5D3E
:1057F0002B430B551278805C0F221040BA2288543C
:1058000001B0B0BDAC06002010B582B001AA107086
:105810001378EE4801461031CB5C1B09BB240355BD
:105820001278895C0F221140BC2281544221405CD5
:10583000012831D1FFE7E5486A21405E401C00287D
:1058400022D1FFE7E1486421405C4007C00F0028F7
:105850001AD0FFE7DD486421405C0007C00F002834
:1058600008D0FFE7D949BB22885C0123184388543C
:10587000009007E0FB49BB22885CFE231840885457
:105880000090FFE7009806E0F649BB22885C012300
:1058900018438854FFE7FFE702B010BDAC060020B4
:1058A00010B582B001AA10701378FC48014610317F
:1058B000CB5C1B09BD2403551278895C0F22114073
:1058C000BE2281544221405C022831D1FFE7F348D7
:1058D0006A21405E401C002822D1FFE7EF48642186
:1058E000405C4007C00F00281AD0FFE7EB48642156
:1058F000405C0007C00F002808D0FFE7E749BD2241
:10590000885C012318438854009007E0E349BD22D6
:10591000885CFE23184088540090FFE7009806E05A
:10592000DE49BD22885C012318438854FFE7FFE766
:1059300002B010BDAC06002010B582B001AA1070F4
:105940001378FC4801461031CB5C1B09BF2403557A
:105950001278895C0F221140C02281544221405CA0
:10596000032831D1FFE7F3486A21405E401C00283C
:1059700022D1FFE7EF486421405C4007C00F0028B8
:105980001AD0FFE7EB486421405C0007C00F0028F5
:1059900008D0FFE7E749BF22885C012318438854F9
:1059A000009007E0E349BF22885CFE23184088543A
:1059B0000090FFE7009806E0DE49BF22885C0123E3
:1059C00018438854FFE7FFE702B010BDAC06002083
:1059D00010B582B001AA10701378FC48014610314E
:1059E000CB5C1B09C12403551278895C0F2211403E
:1059F000C22281544221405C042831D1FFE7F348A0
:105A00006A21405E401C002822D1FFE7EF48642154
:105A1000405C4007C00F00281AD0FFE7EB48642124
:105A2000405C0007C00F002808D0FFE7E749C1220B
:105A3000885C012318438854009007E0E349C122A1
:105A4000885CFE23184088540090FFE7009806E029
:105A5000DE49C122885C012318438854FFE7FFE731
:105A600002B010BDAC060020B0B581B06A4610701F
:105A7000FC49A224085D0123184008551378084604
:105A80001030C35C1D090B5D2B430B551278805CF5
:105A90000F221040A122885401B0B0BDAC060020F6
:105AA00010B582B001AA10701378EE48014610318B
:105AB000CB5C1B09A02403551278895C0F2211408E
:105AC0009F2281544921405C012831D1FFE7E548FC
:105AD0006C21405E401C002822D1FFE7E148642190
